:100122005468652053797374656D20697320527524
:100132006E696E672E2E2E0D0A0057656C636F6D09
:100142006520746F204C51422053797374656D0D94
:020152000A00A1
:03001C00010B00D5
:1000EF00EF24FB601314601914601F24037023E5C1
:1000FF00A0541F4480F5A022E5A0541F44A0F5A0F2
:10010F0022E5A0541F44C0F5A022E5A0541F44E0EF
:03011F00F5A02226
:1001A3007F051200EFE4F5801F1200EF7580FF2238
:10017900758920758DFD758BFD759850538E40D20C
:060189008ED2AFD2AC22C1
:030023000201B324
:0B01B30030980785990BC29880F63247
:0801BE008F993099FDC29922CE
:100154008B088A09890AAB08AA09A90A1200036054
:1001640013050AE50A7002050914F9120003FF12C7
:0501740001BE80E22243
:1000B200E50B603854F02450601424F060222420B0
:1000C200702AE50BF444F0FFE580440F800DE50B48
:1000D200F4C454F0440FFFE58044F05FF5808009DA
:0D00E2007BFF7A017922120154E4F50B2214
:10018F001201A31201797BFF7A01793C12015412FB
:04019F0000B280FB2F
:03000000020026D5
:0C002600787FE4F6D8FD75810B02006DB8
:10000300BB010689828A83E0225002E722BBFE02FB
:09001300E32289828A83E493222E
:1000320002018FE493A3F8E493A34003F68001F254
:1000420008DFF48029E493A3F85407240CC8C333CF
:10005200C4540F4420C8834004F456800146F6DF9E
:10006200E4800B010204081020408090001CE47E12
:10007200019360BCA3FF543F30E509541FFEE49393
:10008200A360010ECF54C025E060A840B8E493A35A
:10009200FAE493A3F8E493A3C8C582C8CAC583CA85
:1000A200F0A3C8C582C8CAC583CADFE9DEE780BE3D
:01001F0000E0
:00000001FF
