:100A6900C0F9A4B0999282F880908883C6A1868E35
:0C0A7900BF7F4079243019120278001071
:0F0AAD00010801040D00000000011500010C00FC
:1007E700E4FF120A4B7FC87E001208227DFF7F01BB
:1007F700120A4B7FC87E001208227F02120A4B7F23
:10080700C87E001208227F03120A4B7FC87E00129F
:0B08170008227F04120A4B7FC87E00FD
:0B082200EF1FAC0670011E4C70F622A8
:0908B2007F061208BB7580FF0FE0
:1008BB00EF24FB601314601914601F24037023E5ED
:1008CB00A0541F4480F5A022E5A0541F44A0F5A01E
:1008DB0022E5A0541F44C0F5A022E5A0541F44E01C
:0308EB00F5A02253
:100A4B00AE077F061208BBAF06A807740108800229
:0E0A5B00C333D8FCF5807F071208BB8D8022C4
:10082D00120ABD7F90120926120A9C7F43120926D7
:10083D00120A9C120AE6120ABD7F91120926120AAB
:10084D009C1209E4AC07E412032F8F1D8E1C8D1B27
:10085D008C1A120A9CC200120A85120AE6AF1DAE4E
:05086D001CAD1BAC1ADC
:010872002263
:1009BE0012082D8F198E188D178C167F0C7E027DC6
:1009CE00FB7C3FAB19AA18A917A816120106120331
:0509DE00638E118F1271
:0109E30022F1
:1006DA007DC11207E7AE11AF127C007D64120439A6
:1006EA00747B2FF582740A3EF583E493FD7F05122D
:1006FA00081BAE11AF127C007D0A1204397C007D02
:10070A000A12043974692DF582740A3CF583E4935C
:10071A00FD7F0612081BAE11AF127C007D0A12047F
:10072A003974692DF582740A3CF583E493FD7F07D9
:0A073A0012081B1208B27580FF229E
:10065700E4FFFE7DC87C42AB10AA0FA90EA80D12BD
:100667000106120363AB07AA067D8C1207E77C001D
:100677007D64AF03AE021203E4747B2FF582740A24
:100687003EF583E493FD7F0512081B7C007D0AAFCE
:1006970003AE021203E47C007D0A1203E474692DA1
:1006A700F582740A3CF583E493FD7F0612081BAEBE
:1006B70002AF037C007D0A1203E474692DF582748E
:1006C7000A3CF583E493FD7F0712081B1208B275F5
:0206D70080FFA2
:0106D90022FE
:10098E007DC81207E77F0512081BE51575F00A846E
:10099E00900A6993FD7F0612081BE51575F00A840F
:1009AE00E5F093FD7F0712081B1208B27580FF2237
:020873008F16DE
:1008750085101A850F19850E18850D17120ABD7F6B
:10088500A0120926120A9CAF16120926120A9CE428
:10089500FFFE7D207C41AB1AAA19A918A8171201E1
:0D08A50006120363120926120A9C020AE6DD
:0208EE008F1663
:1008F000120ABD7FA0120926120A9CAF1612092601
:10090000120A9C120ABD7FA1120926120A9C120922
:10091000E47517008F18C200120A85120AE6AC1798
:06092000AD18E402032AF9
:100A2C001209BEE50824FE600A14600A2402700E46
:0F0A3C000206DA020657E4FF12087312098E222F
:10074400E4FFFE7DC87C42AB10AA0FA90EA80D12CF
:100754000106120363D3E5129FE5119E401175094A
:1007640001C28EE4F50AF50BF513751402800EC36D
:10077400E5129FE5119E5005750902D28CE512B56C
:100784000710E511B5060BE509640170050515753B
:02079400090258
:010796002240
:10047D00C2B2D2B3D2B5D2B420B44FE50864027083
:10048D00497F32FE12082220B440E4F50CAF10AEC5
:10049D000FAD0EAC0DFBFAF978BF1200158F108E53
:1004AD000F8D0E8C0DE4FFFEFDFCAB10AA0FA90EF7
:1004BD00A80D1202AC500BE4F510F50F750EA075DA
:1004CD000D4020B405120A2C80F820B406E508640E
:1004DD0001600920B410E5086403700A20B4051208
:1004ED000A2C80F8050C20B51DE508640370177FF4
:1004FD0032FE12082220B50EE4F50C20B505120AC5
:10050D002C80F8E4F51520B506E508640160092096
:10051D00B510E5086402700A20B505120A2C80F8A2
:10052D00050CC2B3D2B2D2B5D2B420B451E5086431
:10053D0002704B7F32FE12082220B442E4F50CAF5C
:10054D0010AE0FAD0EAC0DFBFAF9783F1200158F02
:10055D00108E0F8D0E8C0DE4FFFE7DA07C40AB1038
:10056D00AA0FA90EA80D1202AC600B4009E4F510FC
:10057D00F50FF50EF50D20B405120A2C80F820B4F8
:10058D0006E5086401600920B410E5086403700AEB
:10059D0020B405120A2C80F8050C20B5207F327E80
:1005AD000012082220B516E4F50C20B505120A2C10
:0E05BD0080F80508E508640470037508012243
:0E0ACC00758901758AB0758C3CD2A9D2AF2213
:03000B00020A0ADC
:100A0A00C0E0758AB0758C3C050BE50B7002050ACF
:100A1A006464450A7009F50AF50BF513751401D0DB
:020A2A00E032B8
:10079700E5146401451370097F041208BBC2808009
:1007A7000FE5146402451370077F041208BBD2805B
:1007B700E5155401FD7C00640170097F041208BB34
:1007C700C281800BED4C70077F041208BBD281C336
:1007D700E50C9403748094804003C28222D2822263
:090AF2007F041208B4E4F580222F
:10095B00120AF2120ACCE4FF1208EE8F108E0F8DE2
:10096B000E8C0DE4FBFA7920784112020F8F108E5A
:10097B000F8D0E8C0D12047D120A2C1207441207D8
:03098B009780F260
:040ADA00D2A07F0522
:080ADE0000AE071FEE70F922C3
:0F0ABD00D2A1120ADAC2A17F05120ADEC2A0225C
:0C0AE600C2A1120ADAD2A17F05020ADECA
:100A8500C2A0A20092A17F05120ADE120ADAC2A054
:070A9500D2A17F05020ADE79
:100A9C00120ADAA2A19200C2A07F05120ADEA200FD
:010AAC002227
:02092600AD071B
:10092800E4FCECC39408748094805024C2A07F0532
:10093800120ADEED30E704D2A18002C2A17F0512BF
:100948000ADED2A0ED25E0FD7F05120ADE0C80D27A
:02095800C2A03B
:01095A00227A
:1009E400E4FCECC39408748094805017120ADAED86
:1009F40025E0FD30A103430501C2A07F05120ADEF4
:050A04000C80DFAF05CE
:010A090022CA
:10000E000203CFE86480F8E933E83360110460F04E
:10001E00ED33EC337009E8FCE9FDEAFEEBFF220458
:10002E0060DED3EB9FEA9EE99DE8C2E78CF0C2F753
:10003E0095F0400CE8CCF8E9CDF9EACEFAEBCFFB1F
:10004E0012039A85D0F05804700320D5B3E80470DB
:10005E00075002B2D50203D992D5EC0460F7E4CC76
:10006E00C0E0C398F8603B94186008400DD0E0FBE8
:10007E000203B1E4FBFAC9FC8028E830E406E4C9C7
:10008E00FBE4CAFCE830E305E4C9CACBFCE854073C
:10009E006010F8C3E913F9EA13FAEB13FBEC13FC47
:1000AE00D8F130F52FC3E49CFCEF9BFFEE9AFEEDEA
:1000BE0099FDD0E0FBEF4E4D4C701222DB03020394
:1000CE00D6EC2CFCEF33FFEE33FEED33FDED30E7D7
:1000DE00EB0203B1EF2BFFEE3AFEED39FDD0E0FB64
:1000EE0050130BBB00030203D9ED13FDEE13FEEF0D
:0800FE0013FFEC13FC0203B137
:10010600EC4D6011E8497017ED33EC3304600DE4F3
:10011600FCFFFEFD22E933E8330470F80203CF1238
:10012600039A58046009E4CC248150062850090239
:1001360003D92840030203D6C0E0EB4A7044B980D5
:1001460006D0E0FB0203C5EF4E701CBD8008EBFF36
:10015600EAFEE9FD80EBE98DF0A4FEE5F00201EF91
:10016600E9CDF9EAFEEBFFEF89F0A4FCE5F0CE89D4
:10017600F0A42EFFE435F0CD89F0A42DFEE435F091
:100186008067EF4E7005BD80D780C3EF8BF0A4ACBF
:10019600F0EE8BF0A42CFCE435F0F8EF8AF0A42CFA
:1001A600E5F038FCE433CB8DF0A42CFCE5F03BF80D
:1001B600EE8AF0A42CFCE5F038F8E433CF89F0A4FD
:1001C6002CFCE5F038CF3400CE89F0A42FFFE5F003
:1001D6003EFEE433C98DF0A42EFEE5F039CD8AF05B
:1001E600A42FFFE5F03EFEE43DFD33D0E0FB5007D3
:1001F6000BBB000F0203D9EC2CFCEF33FFEE33FEF2
:06020600ED33FD0203B11F
:10020C000203D9EC5D046005E8590470030203CFC6
:10021C0012039A580460F6EC4860F2EC7004FDFE90
:10022C00FF22C860DB2481C85009C39860025006C5
:10023C000203D69850CAF582E9294B4A7005AB8265
:10024C000203C575F0007C1A7880C3EF9BEE9AED23
:10025C0099400DC3EF9BFFEE9AFEED99FDE842F03D
:10026C00DC23ACF0D0E0FFD0E0FED0E0FDAB822090
:10027C00E7101BEB60BAEC2CFCEF33FFEE33FEED1A
:10028C0033FD0203B1E803F830E705C0F075F00068
:10029C00EF2FFFEE33FEED33FD40B830E7C280AAFE
:1002AC0074F8CC6480CCC86480C8F58204604FC3F9
:1002BC00EB9FF5F0EA9E42F0E99D42F0E89C45F098
:1002CC00603C501DE5825FFFE582D313CB5BCBF422
:1002DC002B5582FB50280ABA002409B9002008804B
:1002EC001DE5825BFBE582D313CF5FCFF4C3132FE5
:1002FC005582FF50090EBE00050DBD00010CC3EB6D
:10030C009FF5F0EA9E42F0E99D42F0E89C45F060D2
:09031C0007CC4820E701B3EC22F4
:1003250075F020800E75F010800575F0087D007E53
:10033500007F003392D530D50312046FEC334010A3
:10034500EF33FFEE33FEED33FDEC33FCD5F0ED225C
:0E035500E5F0247EA2D513CC92E7CDCEFF2298
:10036300EDD2E7CD33EC3392D524814006E4FFFE92
:10037300FDFC22FCE4CFCECDCC24E0501174FF80F1
:10038300EDC3CC13CCCD13CDCE13CECF13CF04708E
:07039300F030D5DE02046F1B
:10039A00E9D2E7C933E833F892D5EDD2E7CD33ECA9
:0703AA0033FC5002B2D52222
:1003B100EC30E7100FBF000C0EBE00080DBD0004AD
:1003C1000BEB6014A2D5EB13FCED92E7FD2274FF59
:1003D100FCFDFEFF22E480F8A2D574FF13FC7D80B2
:0303E100E480EFC6
:030000000205CB2B
:0C05CB00787FE4F6D8FD7581200206124E
:1003E400BC000BBE0029EF8DF084FFADF022E4CCFD
:1003F400F875F008EF2FFFEE33FEEC33FCEE9DECC6
:10040400984005FCEE9DFE0FD5F0E9E4CEFD22ED0B
:10041400F8F5F0EE8420D21CFEADF075F008EF2F55
:10042400FFED33FD4007985006D5F0F222C398FD46
:050434000FD5F0EA22E3
:10043900C2D5EC30E709B2D5E4C39DFDE49CFCEEDE
:1004490030E715B2D5E4C39FFFE49EFE1203E4C36F
:10045900E49DFDE49CFC80031203E430D507C3E46A
:060469009FFFE49EFE224D
:0E046F00C3E49FFFE49EFEE49DFDE49CFC229E
:1005D70002095BE493A3F8E493A34003F68001F2D6
:1005E70008DFF48029E493A3F85407240CC8C33325
:1005F700C4540F4420C8834004F456800146F6DFF4
:10060700E4800B0102040810204080900AADE47ECC
:10061700019360BCA3FF543F30E509541FFEE493E8
:10062700A360010ECF54C025E060A840B8E493A3AF
:10063700FAE493A3F8E493A3C8C582C8CAC583CADA
:10064700F0A3C8C582C8CAC583CADFE9DEE780BE92
:010ABC000039
:00000001FF
