:10018200C0F9A4B0999282F880908883C6A1868E25
:02019200BF7F2D
:0301A4000108014E
:0A015900E493FD12013B7F647E0079
:0B016300EF1FAC0670011E4C70F6226E
:1000E900EF24FB601314601914601F24037023E5C7
:1000F900A0541F4480F5A022E5A0541F44A0F5A0F8
:1001090022E5A0541F44C0F5A022E5A0541F44E0F5
:03011900F5A0222C
:100194007F041200E97580FF0F1200E9E4F5802264
:10013B00AE077F061200E9AF06A80774010880021C
:0E014B00C333D8FCF5807F071200E98D8022B7
:10008F00900184E493FDE4FF12015C9001827F01F3
:10009F00120159A37F0212015990018AE493FD7F47
:1000AF000312015C900192E493FD7F0412015C7FC7
:1000BF000512015CE50875F00A8490018293FD7FBB
:1000CF000612015CE50875F00A84E5F093FD7F07E1
:0A00DF0012013B7F647E0002016302
:10016E00AB07AA06EB1BAE0270011A4E6005120019
:04017E008F80F1225B
:10011C001201940508D3E508940C74809480400374
:0F012C0075080112008F7F647E0012016E80E45F
:03000000020003F8
:0C000300787FE4F6D8FD75810802004A01
:10000F0002011CE493A3F8E493A34003F68001F2EA
:10001F0008DFF48029E493A3F85407240CC8C333F2
:10002F00C4540F4420C8834004F456800146F6DFC1
:10003F00E4800B01020408102040809001A4E47EAC
:10004F00019360BCA3FF543F30E509541FFEE493B6
:10005F00A360010ECF54C025E060A840B8E493A37D
:10006F00FAE493A3F8E493A3C8C582C8CAC583CAA8
:10007F00F0A3C8C582C8CAC583CADFE9DEE780BE60
:0101A7000057
:00000001FF
