:10025300C0F9A4B0999282F880908883C6A1868E53
:02026300BF7F5B
:09029D00010900010A0001080139
:10020A0075F00A84E5F090025393FD12023E7FF4E2
:02021A007E0163
:0B021C00EF1FAC0670011E4C70F622B4
:1000E3001202767F9012018B1202657F0312018B3D
:1000F3001202651202911202767F9112018B120293
:10010300651201C08F0A120265C200120227120291
:0801130091AD0A7F0302008F89
:10011B001202767F9012018B1202657F0112018B06
:10012B001202651202911202767F9112018B12025A
:10013B00651201C08F09120265C20012022712025A
:08014B0091AD097F0102008F54
:1001530020B3347F327E0012021C20B32AE50864E8
:1001630001700F75080220B31EAD097F0112008FC5
:1001730080F4E5086402700F75080120B309AD0A25
:080183007F0312008F80F422BB
:10023E00A8077401088002C333D8FC90C000F09068
:05024E00E000EDF022CC
:10008F00AB05AA077DBFE4FF120215EA9002539356
:10009F00FD7F011202157DBF7F021202157DFF7FCA
:1000AF00031202157F04120215EB75F0648490029F
:1000BF005393FD7F05120215EB75F00A847F06122C
:1000CF00020AEB7F0712020A90A00074FFF090C0A3
:0400DF0000E4F02227
:1001E60090800074FFF090A000E4F0120153E5083F
:1001F6006401700512011B80F2E508640270EC12BE
:0402060000E380E7AA
:04028500D2A07F057F
:0802890000AE071FEE70F92220
:0F027600D2A1120285C2A17F05120289C2A02265
:0C029100C2A1120285D2A17F05020289E1
:10022700C2A0A20092A17F05120289120285C2A074
:07023700D2A17F050202893C
:10026500120285A2A19200C2A07F05120289A200F6
:010275002266
:02018B00AD07BE
:10018D00E4FCECC39408748094805024C2A07F05D5
:10019D00120289ED30E704D2A18002C2A17F0512BF
:1001AD000289D2A0ED25E0FD7F051202890C80D2D7
:0201BD00C2A0DE
:0101BF00221D
:1001C000E4FCECC39408748094805017120285ED0F
:1001D00025E0FD30A103430501C2A07F051202897D
:0501E0000C80DFAF05FB
:0101E50022F7
:03000000020003F8
:0C000300787FE4F6D8FD75812002004AE9
:10000F000201E6E493A3F8E493A34003F68001F220
:10001F0008DFF48029E493A3F85407240CC8C333F2
:10002F00C4540F4420C8834004F456800146F6DFC1
:10003F00E4800B010204081020408090029DE47EB2
:10004F00019360BCA3FF543F30E509541FFEE493B6
:10005F00A360010ECF54C025E060A840B8E493A37D
:10006F00FAE493A3F8E493A3C8C582C8CAC583CAA8
:10007F00F0A3C8C582C8CAC583CADFE9DEE780BE60
:0102A6000057
:00000001FF
