:1000AE00C0F9A4B0999282F880908883C6A1868EFA
:0200BE00BF7F02
:0B00CC00EF1FAC0670011E4C70F62206
:0700560012005D7580FF0F31
:10005D00EF24FB601314601914601F24037023E553
:10006D00A0541F4480F5A022E5A0541F44A0F5A084
:10007D0022E5A0541F44C0F5A022E5A0541F44E082
:03008D00F5A022B9
:0900D7007F04120056E4F58022BA
:10009000AE077F0612005DAF06A807740108800254
:0E00A000C333D8FCF5807F0712005D8D8022EF
:10000300E4FBEBC39408748094805024E4FAEAC3BD
:10001300940A748094805015AF03EA9000AE93FD68
:100023001200907F607EEA1200CC0A80E10B80D23E
:10003300E4FBEBC394107480948050167F06120087
:1000430056EB9000AE93F5807F607EEA1200CC0BF6
:0200530080E04B
:010055002288
:0800E0001200D712000380FB9F
:030000000200C03B
:0C00C000787FE4F6D8FD7581070200E0AF
:00000001FF
