:10047400C0F9A4B0999282F880904079243019127E
:0404840002780010EA
:100448008E0B8F0CE50C150CAE0B7002150B4E6065
:07045800051202CE80EE2226
:100366001203FE7FCC1203D77F441203D77FE87EA9
:10037600031204487FCC1203D77FBE1203D71204A0
:10038600258F091204258F0A1203FEE509F508E4F4
:10039600703EE508C4540FF50875F00AA4F508E5A3
:1003A60009540FFCE412020BE4FBFA7980783D1243
:1003B60000FBC004C005C006C007AC08E412020B6F
:1003C600D003D002D001D00012000A12023F8F08DB
:0103D6002204
:1002CE00E50875F00A84E5F090047493FD7F07123B
:1002DE00045F7FC87E001204AFE50875F06484E504
:1002EE00F075F00A8490047E93FD7F0612045F7F02
:1002FE00C87E001204AFE50875F064849004749310
:10030E00FD7F0512045F7FC87E001204AF7DFF7F64
:10031E000412045F7F647E001204AF7DFF7F031220
:10032E00045F7F647E001204AF7DFF7F0212045FC4
:10033E007F647E001204AF7DFF7F0112045F7F6435
:10034E007E001204AF7DFFE4FF12045F7F647E0027
:08035E001204AF7FFF020497B7
:0804BA001203661202CE80F865
:0B04AF00EF1FAC0670011E4C70F6221F
:10045F00A8077401088002C333D8FC90C000F09045
:05046F00E000EDF022A9
:0C04970090C00074FFF090E000EFF02235
:040488007F327E0041
:0B048C00EF1FAC0670011E4C70F62242
:0203D700AD0770
:1003D900E4FBEBC39408748094805012C294ED132B
:1003E9009294120488D294EDC313FD0B80E47F32FA
:0503F9007E0002048CEF
:10042500E4FBEBC39408748094805014C294EDC32C
:1004350013FDD2943094034305801204880B80E2A7
:02044500AF0501
:010447002292
:1003FE00C200D2947F787E0012048CC2947F207E3D
:10040E000312048CD2947F647E0012048CA2949208
:06041E0000120488A20098
:0104240022B5
:100003000202ABE86480F8E933E83360110460F07E
:10001300ED33EC337009E8FCE9FDEAFEEBFF220463
:1000230060DED3EB9FEA9EE99DE8C2E78CF0C2F75E
:1000330095F0400CE8CCF8E9CDF9EACEFAEBCFFB2A
:1000430012027685D0F05804700320D5B3E804700B
:10005300075002B2D50202B592D5EC0460F7E4CCA6
:10006300C0E0C398F8603B94186008400DD0E0FBF3
:1000730002028DE4FBFAC9FC8028E830E406E4C9F7
:10008300FBE4CAFCE830E305E4C9CACBFCE8540747
:100093006010F8C3E913F9EA13FAEB13FBEC13FC52
:1000A300D8F130F52FC3E49CFCEF9BFFEE9AFEEDF5
:1000B30099FDD0E0FBEF4E4D4C701222DB030202A0
:1000C300B2EC2CFCEF33FFEE33FEED33FDED30E706
:1000D300EB02028DEF2BFFEE3AFEED39FDD0E0FB94
:1000E30050130BBB00030202B5ED13FDEE13FEEF3D
:0800F30013FFEC13FC02028D67
:1000FB00EC4D6011E8497017ED33EC3304600DE4FF
:10010B00FCFFFEFD22E933E8330470F80202AB1268
:10011B00027658046009E4CC248150062850090269
:10012B0002B52840030202B2C0E0EB4A7044B9802A
:10013B0006D0E0FB0202A1EF4E701CBD8008EBFF66
:10014B00EAFEE9FD80EBE98DF0A4FEE5F00201E4A7
:10015B00E9CDF9EAFEEBFFEF89F0A4FCE5F0CE89DF
:10016B00F0A42EFFE435F0CD89F0A42DFEE435F09C
:10017B008067EF4E7005BD80D780C3EF8BF0A4ACCA
:10018B00F0EE8BF0A42CFCE435F0F8EF8AF0A42C05
:10019B00E5F038FCE433CB8DF0A42CFCE5F03BF818
:1001AB00EE8AF0A42CFCE5F038F8E433CF89F0A408
:1001BB002CFCE5F038CF3400CE89F0A42FFFE5F00E
:1001CB003EFEE433C98DF0A42EFEE5F039CD8AF066
:1001DB00A42FFFE5F03EFEE43DFD33D0E0FB5007DE
:1001EB000BBB000F0202B5EC2CFCEF33FFEE33FE22
:0601FB00ED33FD02028D50
:1002010075F020800E75F010800575F0087D007E78
:10021100007F003392D530D5031202C0EC33401079
:10022100EF33FFEE33FEED33FDEC33FCD5F0ED2281
:0E023100E5F0247EA2D513CC92E7CDCEFF22BD
:10023F00EDD2E7CD33EC3392D524814006E4FFFEB7
:10024F00FDFC22FCE4CFCECDCC24E0501174FF8016
:10025F00EDC3CC13CCCD13CDCE13CECF13CF0470B3
:07026F00F030D5DE0202C0F1
:10027600E9D2E7C933E833F892D5EDD2E7CD33ECCE
:0702860033FC5002B2D52247
:10028D00EC30E7100FBF000C0EBE00080DBD0004D2
:10029D000BEB6014A2D5EB13FCED92E7FD2274FF7E
:1002AD00FCFDFEFF22E480F8A2D574FF13FC7D80D7
:0302BD00E480EFEB
:030000000204A354
:0C04A300787FE4F6D8FD7581200204BAD1
:0E02C000C3E49FFFE49EFEE49DFDE49CFC224F
:00000001FF
