:10021700C0F9A4B0999282F880908883C6A1868E8F
:02022700BF7F97
:020136008F0B2D
:1001380012023A7FA0120101120229AF0B1201012B
:1001480012022912023A7FA1120101120229120198
:10015800698F0C120229C2001201EB120255AF0C72
:010168002274
:10018F008F0B8D0C12023A7FA0120101120229AFC0
:10019F000B120101120229AF0C12010112022902E6
:0201AF000255F7
:1001B10075F00A84E5F090021793FD1202027FF4B4
:0201C1007E01BD
:0B01C300EF1FAC0670011E4C70F6220E
:1000030020B3227F147E001201C320B31820B3054E
:1000130012009780F80508D3E508940D7480948046
:100023004003E4F50820B2227F147E001201C320AE
:10003300B21820B20512009780F80509D3E5099498
:100043000D748094804003E4F50920B11D7F0A7E7E
:10005300001201C320B11330B1FD050AD3E50A94A0
:100063000D748094804003E4F50AAD08E4FF1201A7
:100073008F7FE87E031201C3AD097F0112018F7FD9
:10008300E87E031201C3AD0A7F0212018F7FE87E6F
:04009300030201C3A0
:10020200A8077401088002C333D8FC90C000F090A4
:05021200E000EDF02208
:10009700E50875F00A8490021793FDE4FF1201BC8E
:1000A700E5087F011201B17DBF7F021201BCE5099E
:1000B70075F00A8490021793FD7F031201BCE509CE
:1000C7007F041201B17DBF7F051201BCE50A75F0FF
:1000D7000A8490021793FD7F061201BCE50A75F0AA
:1000E7000A84E5F090021793FD7F071201BC90A0E8
:0A00F7000074FFF090C000E4F02256
:1001CE00E4FF1201368F087F011201368F097F027C
:0D01DE001201368F0A12000312009780F8FC
:04024900D2A07F05BB
:08024D0000AE071FEE70F9225C
:0F023A00D2A1120249C2A17F0512024DC2A02219
:0C025500C2A1120249D2A17F0502024D95
:1001EB00C2A0A20092A17F0512024D120249C2A029
:0701FB00D2A17F0502024DB5
:10022900120249A2A19200C2A07F0512024DA200AA
:0102390022A2
:02010100AD0748
:10010300E4FCECC39408748094805024C2A07F055F
:1001130012024DED30E704D2A18002C2A17F051285
:10012300024DD2A0ED25E0FD7F0512024D0C80D2D9
:02013300C2A068
:0101350022A7
:10016900E4FCECC39408748094805017120249EDA2
:1001790025E0FD30A103430501C2A07F0512024D10
:050189000C80DFAF0552
:01018E00224E
:0300000002026198
:0C026100787FE4F6D8FD7581200201CE04
:00000001FF
