:10025000C0F9A4B0999282F880908883C6A1868E56
:02026000BF7F5E
:040277000208000079
:0602700000007F21DFFE0B
:010276002265
:1001F700E4FEEEC3940874809480500DD2901202EE
:0902070070C2901202700E80E931
:0102100022CB
:1001B60053890FE4F58BF58D1201F7D28E3091033A
:1001C600308FFAC28E208F20AF8DE58B75F00A84B2
:1001D60075F011A4FFAEF07C007D64120180EF245F
:1001E60003F509E43EF50822C28F7508037509E791
:0101F60022E6
:10021100A8077401088002C333D8FC90C000F09095
:05022100E000EDF022F9
:0A022600E493FD1202117FF47E0143
:0B023000EF1FAC0670011E4C70F622A0
:10000300E509B4E713E508B4030E7D8EE4FF12029D
:10001300117FF47E010202307DFFE4FF1202297F8B
:10002300011202297F021202297F031202297F048F
:10003300120229AE08AF097C007D6412012B7450B3
:100043002FF58274023EF5837F05120226AE08AFB8
:10005300097C007D0A12012B7E007F0ACFCDCFCE13
:10006300CCCE12012B74502FF58274023EF5837FA0
:1000730006120226AE08AF097C007D0A12012B741A
:10008300502DF58274023CF583E493FD7F07120241
:0C0093002990C00074FFF090E000F02203
:0E026200AB07AF031BEF600512000380F5220F
:10023B0090800074FFF090A000E4F01201B67F0AEA
:05024B0012026280F6C2
:0300000002009F5C
:0C009F00787FE4F6D8FD7581090200E6C8
:10012B00BC000BBE0029EF8DF084FFADF022E4CCB8
:10013B00F875F008EF2FFFEE33FEEC33FCEE9DEC81
:10014B00984005FCEE9DFE0FD5F0E9E4CEFD22EDC7
:10015B00F8F5F0EE8420D21CFEADF075F008EF2F11
:10016B00FFED33FD4007985006D5F0F222C398FD02
:05017B000FD5F0EA229F
:10018000C2D5EC30E709B2D5E4C39DFDE49CFCEE9A
:1001900030E715B2D5E4C39FFFE49EFE12012BC3E6
:1001A000E49DFDE49CFC800312012B30D507C3E4E1
:0601B0009FFFE49EFE2209
:1000AB0002023BE493A3F8E493A34003F68001F22E
:1000BB0008DFF48029E493A3F85407240CC8C33356
:1000CB00C4540F4420C8834004F456800146F6DF25
:1000DB00E4800B0102040810204080900277E47E3C
:1000EB00019360BCA3FF543F30E509541FFEE4931A
:1000FB00A360010ECF54C025E060A840B8E493A3E1
:10010B00FAE493A3F8E493A3C8C582C8CAC583CA0B
:10011B00F0A3C8C582C8CAC583CADFE9DEE780BEC3
:01027B000082
:00000001FF
