:1009EF00C0F9A4B0999282F880908883C6A1868EB0
:0C09FF00BF7F40792430191202780010EC
:060AC700011801011BFFF4
:040845007DFF7F06AE
:100849008D80EF603624FB601414601B1460222431
:1008590003702BE5A0541F4480F5A08021E5A05426
:100869001F44A0F5A08017E5A0541F44C0F5A0803F
:100879000DE5A0541F44E0F5A0800353A01F53A029
:020889001F222C
:10072100E51825E0240CF8E6FE08E6FF7C007D6470
:100731001201E57C007D0A1201E574EF2DF582744A
:10074100093CF583E493FD7F05120A257FC87E00ED
:10075100120784E51825E0240CF8E6FE08E6FF7C84
:10076100007D0A1201E57C007D0A1201E574EF2D7E
:10077100F58274093CF5837F06E493FD120A257F17
:03078100C87E002F
:0B078400EF1FAC0670011E4C70F62247
:100A2500AE05A8077401088002C333D8FCFD7F0614
:090A3500120849AD060F02084940
:10088B00120A937F9012094C120A827F4312094C71
:10089B00120A82120ABB120A937F9112094C120A96
:1008AB00821209A7AC07E412011E8F288E278D2612
:1008BB008C25120A82D200120A55120ABBAF28AE3F
:0508CB0027AD26AC255D
:0108D0002205
:1009810012088B8F248E238D228C217F0C7E027D79
:10099100FB7C3FAB24AA23A922A82112000E12013D
:0509A100528E198F1AAF
:0109A600222E
:020914008F2131
:10091600120A937FA012094C120A82AF2112094CC7
:10092600120A82120A937FA112094C120A82120934
:10093600A77522008F23120A82D200120A55120AC4
:05094600BBAE22AF234F
:01094B002289
:1009CD008F218D22120A937FA012094C120A82AF39
:1009DD002112094C120A82AF2212094C120A82020C
:0209ED000ABB43
:100A6C00538E7F5389F0438901758A17758CFCD29C
:060A7C008CD2A9D2AF22CA
:10036D00E5166003020427E517B4190040030204E3
:10037D0027900385F82828730203D00203D50203C2
:10038D00D70203D90203DB0203DD0203DF0203E11F
:10039D000203E30203E50203EA0203EF0203F402A0
:1003AD0003F90203FE02040302040802040D020411
:1003BD000F02041102041302041502041A02041F91
:1003CD0002040D751BFF80528031802A8023801C12
:1003DD008015800E80078000751B7F803D751BBFCB
:1003ED008038751BDF8033751BEF802E751BF780F2
:1003FD0029751BFB8024751BFD801F751BFE801A44
:10040D008015800E80078000751BE7800D751BDB46
:10041D008008751BBD8003751B7EE51764014516AD
:10042D00700475180122E5176409451670047518D6
:10043D000222E51764114516700475180322E5179D
:0A044D0064154516700375180422AB
:1007F500C3E51A947DE519648094805007751E053C
:10080500751C0122C3E51A94FAE519648094805099
:1008150007751E0A751C0222C3E51A9477E519644B
:100825008094815007751E0F751C0322D3E51A9419
:10083500F4E519648094815006751E14751C042214
:03000B0002045795
:10045700C0E0C083C082C0D075D000C000C005C056
:1004670006C007758A17758CFC050DE50D7002052A
:100477000C051DE51DD3951E5004AD1B800DC3E56E
:100487001D94147480948050097DFF7F04120849DD
:10049700800DAD1B7F04120849751D0012036DE521
:1004A7001825E0240CF8E6FE08E6B50D25E50CB5A1
:1004B7000620750C00750D00E50A64017008051724
:1004C700E51770020516E517641945167004F51649
:1004D700F5170509E50970020508B4200EE508B40B
:1004E7000309750800750900630BFFD007D006D014
:0C04F70005D000D0D0D082D083D0E032FD
:070003001208450F02084935
:1008D1007DFFE4FF12077D7DFF7F0112077D7DFF14
:1008E1007F0212077D7DFF7F0312077D7DFF7F045D
:1008F10012077D7DFF7F0512077D9009FF120778A2
:10090100E51C9009EF93FD7F0712077D1208450F43
:0309110002084990
:10078F00E51824FE601B146029146037240370459C
:10079F00AE0EAF0F7C007D0A1201E5AD077F018021
:1007AF0031AE10AF117C007D0A1201E5AD077F025B
:1007BF008020AE12AF137C007D0A1201E5AD077FDA
:1007CF0003800FAE14AF157C007D0A1201E5AD0753
:1007DF007F041209CD7FE87E03120784120003E421
:0607EF00F51F7518012240
:100A3E00E51F24FE600A14600A24027009020622D1
:070A4E0002050312078F22CD
:1002480020B0227F327E0012078420B018E50A70A1
:1002580005750A01800CE4F50AF516F517F51F7502
:10026800180130B0FD20B1287F0A7E0012078420D3
:10027800B11E051FE51F640170051206228009E5FD
:100288001F6402700312050320B105120A3E80F8AC
:1002980020B2607F0A7E0012078420B256E51F64F0
:1002A8000170130518E5186405700375180120B26C
:1002B8004212062280F8E51F64027037E51825E02F
:1002C800240CF808746426F618E436F6E51825E0D8
:1002D800240CF8E6FE08E6D394B0EE9404400CE54E
:1002E8001825E0240CF876040876B020B20512052B
:1002F8000380F820B36E7F0A7E0012078420B3645F
:10030800E51F640170111518E518700375180420AD
:10031800B35212062280F8E51F64027038E51825EA
:10032800E0240CF808749C26F61874FF36F6E518D5
:1003380025E0240CF8E6FE08E6C39490EE940150FC
:100348000CE51825E0240CF8760108769020B31403
:1003580012050380F8E51F700B20B3081208D112AC
:05036800036D80F52289
:10062200E50B70167DBFFF12077DE5189009EF9369
:10063200FD7F0112077D7DBF80107DFFE4FF120761
:100642007D7DFF7F0112077D7DFF7F0212077DE521
:100652001825E0240CF8E6FE08E6FFC394E8EE94C1
:100662000340167C037DE81201E574EF2FF58274D6
:10067200093EF5837F0412077A120721E51825E067
:10068200240CF8E6FE08E6FF7C007D0A1201E57400
:10069200EF2DF58274093CF583E493FD7F07120781
:0806A2007D1208450F02084912
:100503007DBFE4FF12077DE5189009EF93FD7F019E
:1005130012077D7DBF7F0212077DE50B7052E51840
:1005230025E0240CF8E6FE08E6FFC394E8EE940306
:1005330040197C037DE81201E574EF2FF5827409FD
:100543003EF583E493FD7F0412077D120721E5182E
:1005530025E0240CF8E6FE08E6FF7C007D0A120184
:10056300E574EF2DF58274093CF583E493FD801760
:100573007DFF7F0412077D7DFF7F0512077D7DFFD1
:100583007F0612077D7DFF7F0712077D1208450F47
:0305930002084912
:0D0AA2007DFF7F04120849E4FD0F020849A2
:1006AA007F011209147C007D0A1201D38E0E8F0F6E
:1006BA007F021209147C007D0A1201D38E108F1159
:1006CA007F031209147C007D0A1201D38E128F1344
:1006DA007F041209147C007D0A1201D38E148F152F
:1006EA00E4FFEFC3940474809480502AEF25E02439
:1006FA000EF8E6FC08E6FDD394B0EC94045009C366
:10070A00ED9490EC9401500BEF25E0240EF876015D
:06071A000876900F80CC70
:0107200022B6
:100A0B00120AA21206AA120A6C12088B1209811280
:0A0A1B0007F5120248120A3E80EFB0
:040AAF00D2A07F054D
:080AB30000AE071FEE70F922EE
:0F0A9300D2A1120AAFC2A17F05120AB3C2A022DC
:0C0ABB00C2A1120AAFD2A17F05020AB34B
:100A5500C2A0A20092A17F05120AB3120AAFC2A0DA
:070A6500D2A17F05020AB3D4
:100A8200120AAFA2A19200C2A07F05120AB3A2006D
:010A92002241
:02094C00AD07F5
:10094E00E4FCECC39408748094805024C2A07F050C
:10095E00120AB3ED30E704D2A18002C2A17F0512C4
:10096E000AB3D2A0ED25E0FD7F05120AB30C80D2AA
:02097E00C2A015
:010980002254
:1009A700E4FCECC39408748094805017120AAFEDEE
:1009B70025E0FD30A103430501C2A07F05120AB35C
:0509C7000C80DFAF050C
:0109CC002208
:10000E00EC4D6011E8497017ED33EC3304600DE4EC
:10001E00FCFFFEFD22E933E8330470F80201BE1244
:10002E00018958046009E4CC248150062850090245
:10003E0001C82840030201C5C0E0EB4A7044B980F4
:10004E0006D0E0FB0201B4EF4E701CBD8008EBFF42
:10005E00EAFEE9FD80EBE98DF0A4FEE5F00200F783
:10006E00E9CDF9EAFEEBFFEF89F0A4FCE5F0CE89CD
:10007E00F0A42EFFE435F0CD89F0A42DFEE435F08A
:10008E008067EF4E7005BD80D780C3EF8BF0A4ACB8
:10009E00F0EE8BF0A42CFCE435F0F8EF8AF0A42CF3
:1000AE00E5F038FCE433CB8DF0A42CFCE5F03BF806
:1000BE00EE8AF0A42CFCE5F038F8E433CF89F0A4F6
:1000CE002CFCE5F038CF3400CE89F0A42FFFE5F0FC
:1000DE003EFEE433C98DF0A42EFEE5F039CD8AF054
:1000EE00A42FFFE5F03EFEE43DFD33D0E0FB5007CC
:1000FE000BBB000F0201C8EC2CFCEF33FFEE33FEFE
:06010E00ED33FD0201A02B
:1001140075F020800E75F010800575F0087D007E66
:10012400007F003392D530D50312023AEC334010ED
:10013400EF33FFEE33FEED33FDEC33FCD5F0ED226F
:0E014400E5F0247EA2D513CC92E7CDCEFF22AB
:10015200EDD2E7CD33EC3392D524814006E4FFFEA5
:10016200FDFC22FCE4CFCECDCC24E0501174FF8004
:10017200EDC3CC13CCCD13CDCE13CECF13CF0470A1
:07018200F030D5DE02023A65
:10018900E9D2E7C933E833F892D5EDD2E7CD33ECBC
:0701990033FC5002B2D52235
:1001A000EC30E7100FBF000C0EBE00080DBD0004C0
:1001B0000BEB6014A2D5EB13FCED92E7FD2274FF6C
:1001C000FCFDFEFF22E480F8A2D574FF13FC7D80C5
:0301D000E480EFD9
:0300000002059660
:0C059600787FE4F6D8FD7581280205DDB1
:1001D300EF8DF0A4A8F0CF8CF0A428CE8DF0A42E40
:0201E300FE22FA
:1001E500BC000BBE0029EF8DF084FFADF022E4CCFE
:1001F500F875F008EF2FFFEE33FEEC33FCEE9DECC7
:10020500984005FCEE9DFE0FD5F0E9E4CEFD22ED0C
:10021500F8F5F0EE8420D21CFEADF075F008EF2F56
:10022500FFED33FD4007985006D5F0F222C398FD47
:050235000FD5F0EA22E4
:0E023A00C3E49FFFE49EFEE49DFDE49CFC22D5
:1005A200020A0BE493A3F8E493A34003F68001F25A
:1005B20008DFF48029E493A3F85407240CC8C3335A
:1005C200C4540F4420C8834004F456800146F6DF29
:1005D200E4800B0102040810204080900AC7E47EE8
:1005E200019360BCA3FF543F30E509541FFEE4931E
:1005F200A360010ECF54C025E060A840B8E493A3E5
:10060200FAE493A3F8E493A3C8C582C8CAC583CA0F
:10061200F0A3C8C582C8CAC583CADFE9DEE780BEC7
:010ACD000028
:00000001FF
