:1000610077656C636F6D6520746F2020776F726C9C
:0400710064200A00FD
:10007500EF24FB600704700AC2A58002D2A5C2A6C0
:03008500D2A722DD
:100099007F041200757580FF0F120075E4F5802248
:10004B00758920758DFD758BFDD28E759850E4F5F5
:06005B008ED2AFD2AC22F0
:0300230002001CBC
:01001C0032B1
:0800B5008F993099FDC29922D8
:100026008B088A09890AAB08AA09A90A1200036083
:1000360013050AE50A7002050914F9120003FF12F6
:0500460000B580E2227C
:1000880012009912004B7BFF7A00796112002680DA
:01009800FE69
:030000000200A952
:0C00A900787FE4F6D8FD75810A0200881B
:10000300BB010689828A83E0225002E722BBFE02FB
:09001300E32289828A83E493222E
:00000001FF
