:0600B300F5807F607EEA8B
:1000B900EF1FAC0670011E4C70F6EF1FAC06700105
:0500C9001E4C70F62240
:10008000EF24FB601314601914601F24037023E530
:10009000A0541F4480F5A022E5A0541F44A0F5A061
:1000A00022E5A0541F44C0F5A022E5A0541F44E05F
:0300B000F5A02296
:1000CE007F05120080E4F5801F1200807580FF22EC
:10000300E4FDEDC394037480948050127F041200C6
:1000130080E41200B37580FF1200B50D80E4E4FDA7
:10002300EDC394087480948050167F04120080A856
:100033000574FE088002C333D8FC1200B30D80E0C0
:100043007F051200807580101200B5E4FDEDC394A6
:10005300087480948050177F04120080A80574FEF2
:10006300088002C333D8FCF41200B30D80DF7F0590
:0C0073001200807580401200B5E4F5809A
:01007F00225E
:0800EA001200CE12000380FB9E
:030000000200DE1D
:0C00DE00787FE4F6D8FD7581070200EA87
:00000001FF
