:1003EC00C0F9A4B0999282F8809040792430191207
:0403FC000278001073
:06000300010B01010801E0
:10029D001203127FCC1202EB7F441202EB120312F7
:1002AD007FCC1202EB7FBE1202EB1203858F0E1272
:0602BD000385E50EF50AC1
:0102C3002218
:040411007FC87E0022
:0B041500EF1FAC0670011E4C70F622B9
:100105007DC6E4FF1203D7120411E50A75F0648475
:100115009003EC93FD7F011203D7120411E50A75D4
:10012500F00A8475F00A84E5F09003F693FD7F02EA
:100135001203D7120411E50A75F00A84E5F090035D
:10014500EC93FD7F031203D712041190C00074F0E5
:0E015500F090E00074FFF07FC87E00020415F9
:1003A800538E7F5389F0438901758AB0758C3CC29E
:0803B8008DD28CD2AFD2A92234
:03000B000201B837
:1001B800C0E0C0D075D000C006C007758AB0758C85
:1001C8003C0509D3E509941474809480401A750994
:1001D80000AF0B7E00EF64017005750B028009EF1C
:1001E80064024E7003750B01D007D006D0D0D0E062
:0101F80032D4
:1002C400D3E50A94FA74809480401BAF0B7E00EF50
:1002D400640170069080007455F0EF64024E70065D
:0602E40090800074FFF0A1
:0102EA0022F1
:1001F9001204207F901202681204007F43120268E1
:100209001204001204561204207F9112026812048B
:100219000012035FEF75F002A485F00CF50D1204CE
:0902290000C2001203C0020456D9
:10009A0090C000741FF090E00074FFF01204117D0C
:1000AA00C17F051203D7120411AE0CAF0D7C007D7F
:1000BA006412016374F62FF58274033EF583E493A8
:1000CA00FD7F061203D7120411AE0CAF0D7C007D22
:1000DA000A1201637C007D0A12016374EC2DF58219
:1000EA0074033CF583E493FD7F071203D7120411CE
:0B00FA0090C00074FFF090E000F022C6
:1002320020B3327F147E0012041520B328E508642F
:1002420001700E75080220B31C12029D1201058076
:10025200F5E5086402700E75080120B3081201F971
:0602620012009A80F52253
:0C043E0090800074FFF090A000E4F02219
:1003390012043E1203A81201F912029D120232E5BB
:100349000864017003120105E508640270031200D4
:060359009A1202C480E0CC
:04044A00D2A07F05B8
:08044E0000AE071FEE70F92259
:0F042000D2A112044AC2A17F0512044EC2A0222B
:0C045600C2A112044AD2A17F0502044E8C
:1003C000C2A0A20092A17F0512044E12044AC2A04C
:0703D000D2A17F0502044EDB
:1004000012044AA2A19200C2A07F0512044EA200CB
:0104100022C9
:02026800AD07E0
:10026A00E4FCECC39408748094805024C2A07F05F7
:10027A0012044EED30E704D2A18002C2A17F05121A
:10028A00044ED2A0ED25E0FD7F0512044E0C80D26B
:02029A00C2A000
:01029C00223F
:10035F00E4FCECC3940874809480501712044AEDA7
:10036F0025E0FD30A103430501C2A07F0512044E15
:05037F000C80DFAF055A
:010384002256
:0B046E00EF1FAC0670011E4C70F62260
:1003D700A8077401088002C333D8FC90C000F090CE
:0503E700E000EDF02232
:0C04620090C00074FFF090E000EFF0226A
:04042F007F327E009A
:0B043300EF1FAC0670011E4C70F6229B
:0202EB00AD075D
:1002ED00E4FBEBC39408748094805012C294ED1318
:1002FD00929412042FD294EDC313FD0B80E47F3240
:05030D007E0002043334
:10038500E4FBEBC39408748094805014C294EDC3CD
:1003950013FDD29430940343058012042F0B80E2A1
:0203A500AF05A2
:0103A7002233
:10031200C200D2947F787E00120433C2947F207E82
:1003220003120433D2947F647E00120433A29492A7
:060332000012042FA200DE
:0103380022A2
:0300000002000EED
:0C000E00787FE4F6D8FD758120020055D3
:10016300BC000BBE0029EF8DF084FFADF022E4CC80
:10017300F875F008EF2FFFEE33FEEC33FCEE9DEC49
:10018300984005FCEE9DFE0FD5F0E9E4CEFD22ED8F
:10019300F8F5F0EE8420D21CFEADF075F008EF2FD9
:1001A300FFED33FD4007985006D5F0F222C398FDCA
:0501B3000FD5F0EA2267
:10001A00020339E493A3F8E493A34003F68001F2C0
:10002A0008DFF48029E493A3F85407240CC8C333E7
:10003A00C4540F4420C8834004F456800146F6DFB6
:10004A00E4800B0102040810204080900003E47E43
:10005A00019360BCA3FF543F30E509541FFEE493AB
:10006A00A360010ECF54C025E060A840B8E493A372
:10007A00FAE493A3F8E493A3C8C582C8CAC583CA9D
:10008A00F0A3C8C582C8CAC583CADFE9DEE780BE55
:0100090000F6
:00000001FF
