:1002A500C0F9A4B0999282F880908883C6A1868E01
:0202B500BF7F09
:10021E0075F00A847F0675F00A84E5F09002A593C6
:08022E00FD1202907FF47E0135
:0B023600EF1FAC0670011E4C70F6229A
:1001C7001202C87F9012015F1202B77F0112015F0E
:1001D7001202B71202E31202C87F9112015F1202E4
:1001E700B71201F88F0A1202B7C2001202630202A5
:0101F700E324
:020194008F0CCE
:100196001202C87FA012015F1202B7AF0C12015FF4
:1001A6001202B71202C87FA112015F1202B7120132
:1001B600F88F0D1202B7C2001202631202E3AF0DEE
:0101C6002216
:100241008F0C8D0D1202C87FA012015F1202B7AF91
:100251000C12015F1202B7AF0D12015F1202B70259
:0202610002E3B6
:100003001201C7AF0A7E00D3EF94C8748094804076
:100013000A90800074FEF075090122D3EF9496EEE6
:1000230064809480400A90800074FCF07509022279
:10003300D3EF9464EE64809480400A90800074F05F
:10004300F075090322D3EF9432EE64809480400A62
:1000530090800074C0F075090422D3EF9400EE641D
:0E0063008094804008908000E4F0750905222A
:10029000A8077401088002C333D8FC90C000F09016
:0502A000E000EDF0227A
:1000CA007DBFE4FF12022FE5099002A593FD7F018F
:1000DA0012022F7DBF7F0212022F7DFF7F031202C1
:1000EA002F7F0412022FE50A75F064849002A5930B
:1000FA00FD7F0512022FE50A12021EE50A7F07128A
:0E010A00022490A00074FFF090C000E4F022E8
:1001180020B3207F147E0012023620B316AD097F6B
:1001280001120241AD0A7F0212024120B3051200FA
:10013800CA80F820B2207F147E0012023620B21640
:100148007F011201948F087F021201948F0B20B255
:070158000512007180F8227E
:100071007DBFE4FF12022FE5089002A593FD7F01E9
:1000810012022F7DBF7F0212022F7DFF7F0312021A
:100091002F7F0412022FE50B75F064849002A59363
:1000A100FD7F0512022FE50B12021EE50B75F00A0A
:1000B10084E5F09002A593FD7F0712022F90A00026
:0900C10074FFF090C000E4F0228D
:10027A0090800074FFF090A000E4F01200031201D5
:06028A00181200CA80F505
:0402D700D2A07F052D
:0802DB0000AE071FEE70F922CE
:0F02C800D2A11202D7C2A17F051202DBC2A0226F
:0C02E300C2A11202D7D2A17F050202DBEB
:10026300C2A0A20092A17F051202DB1202D7C2A094
:07027300D2A17F050202DBAE
:1002B7001202D7A2A19200C2A07F051202DBA20000
:0102C7002214
:02015F00AD07EA
:10016100E4FCECC39408748094805024C2A07F0501
:100171001202DBED30E704D2A18002C2A17F051299
:1001810002DBD2A0ED25E0FD7F051202DB0C80D25F
:02019100C2A00A
:010193002249
:1001F800E4FCECC394087480948050171202D7ED85
:1002080025E0FD30A103430501C2A07F051202DBF2
:050218000C80DFAF05C2
:01021D0022BE
:030000000202EF0A
:0C02EF00787FE4F6D8FD75812002027AC9
:00000001FF
