:0B014300EF1FAC0670011E4C70F6228E
:1000F400EF24FB601314601914601F24037023E5BC
:10010400A0541F4480F5A022E5A0541F44A0F5A0EC
:1001140022E5A0541F44C0F5A022E5A0541F44E0EA
:03012400F5A02221
:100127007F051200F4E4F5801F1200F47580FF22AA
:1000030020B0307F0A7E0012014320B011E5087052
:100013000D75080130B0FD7F041200F4C28020B0DA
:1000230012E5086401700CF50830B0FD7F0412007E
:10003300F4D28020B1307F0A7E0012014320B11137
:10004300E508700D75080230B1FD7F041200F4C29B
:100053008120B112E5086402700CF50830B1FD7F10
:10006300041200F4D281E5086401703F20B21C7FC2
:1000730064FE12014320B2137F041200F4C28230E3
:10008300B2FD7F041200F4D28280EA20B31D7F64A4
:100093007E0012014320B3137F041200F4C28330A5
:1000A300B3FD7F041200F4D28380EAE50864027092
:1000B3003F20B21C7F64FE12014320B2137F04125F
:1000C30000F4C28430B2FD7F041200F4D28480EACB
:1000D30020B31D7F647E0012014320B3137F0412FB
:1000E30000F4C28530B3FD7F041200F4D28580EAA8
:0100F30022EA
:08014E0012012712000380FBDF
:03000000020137C3
:0C013700787FE4F6D8FD75810802014EC7
:00000001FF
