:0301620001080091
:1000D400EF24FB601314601914601F24037023E5DC
:1000E400A0541F4480F5A022E5A0541F44A0F5A00D
:1000F40022E5A0541F44C0F5A022E5A0541F44E00B
:03010400F5A02241
:10014700758901758CFF758A9BD2A9D2AFD28C2293
:03000B0002009A56
:10009A00C0E0C0F0C0D075D000C007758CFF758A6B
:1000AA009B0509E50975F0648485F009E509C3959E
:1000BA000A7F0450071200D4C28080051200D4D2ED
:0A00CA0080D007D0D0D0F0D0E03293
:0B015700EF1FAC0670011E4C70F6227A
:10010700AF087E00EF7002F50AEF64014E700375C9
:100117000A0AEF64024E7003750A32EF64034E70E9
:0501270003750A5A22D5
:10012C0020B0177F647E0012015720B00D050853D4
:0B013C00080320B00512010780F82224
:0800030012014712012C80FBE1
:0300000002000EED
:0C000E00787FE4F6D8FD75810A020055E9
:10001A00020003E493A3F8E493A34003F68001F2F9
:10002A0008DFF48029E493A3F85407240CC8C333E7
:10003A00C4540F4420C8834004F456800146F6DFB6
:10004A00E4800B0102040810204080900162E47EE3
:10005A00019360BCA3FF543F30E509541FFEE493AB
:10006A00A360010ECF54C025E060A840B8E493A372
:10007A00FAE493A3F8E493A3C8C582C8CAC583CA9D
:10008A00F0A3C8C582C8CAC583CADFE9DEE780BE55
:010165000099
:00000001FF
