:10014F00C0F9A4B0999282F880908883C6A1868E58
:02015F00BF7F60
:10007D00EE7032EF24FB601314601914601F24031B
:10008D007023E5A0541F4480F5A022E5A0541F4421
:10009D00A0F5A022E5A0541F44C0F5A022E5A05470
:0600AD001F44E0F5A02253
:10011000AC077F067E0012007DAF04A807740108BB
:100120008002C333D8FCF5807F077E0012007D8DEE
:0201300080222B
:0E016100758901758C3C758AAFD2A9D2AF2288
:03000B000200E709
:1000E700C0E00509758C3C758AAFE5096414701684
:1000F7000508F509E508643C700C050AF508E50AEA
:09010700643C7002F50AD0E032FC
:1001320075F00A84E5F090014F93FD1201107FC81B
:020142007E003D
:0B014400EF1FAC0670011E4C70F6228D
:10000E00E5097F07120132E50975F00A8493FD7F39
:10001E000612013D90015FE493FD7F0512013DE55F
:10002E00087F04120132E50875F00A8493FD7F0300
:10003E0012013D90015FE493FD7F0212013DE50A3E
:10004E0075F00A84E5F090014F93FD7F0112013D9A
:10005E00E50A75F00A8493FDE4FF12013D7F067EEA
:0F006E000012007D7580FF0F12007D7580FF224C
:1000B30020B3147F647E0012014420B30AB28C2063
:1000C300B30512000E80F820B2197F647E0012017E
:1000D3004420B20FE4F509F508F50A20B205120031
:0400E3000E80F82271
:0B017B0012016112000E1200B380F8A8
:0300000002016F8B
:0C016F00787FE4F6D8FD75810A02017B60
:00000001FF
