:10014F00C0F9A4B0999282F880908883C6A1868E58
:02015F00BF7F60
:10010400EF24FB601314601914601F24037023E5AB
:10011400A0541F4480F5A022E5A0541F44A0F5A0DC
:1001240022E5A0541F44C0F5A022E5A0541F44E0DA
:03013400F5A02211
:07013700E50890014F93FF62
:10013E00AE077F061201047580010F1201048E8036
:01014E00228E
:100161007F05120104E4F5801F1201047580FF224E
:10000300C2B0D2B3D2B2D2B1D2B4D2B5D2C2D2C4B8
:1000130020C40930C4FDE4F50812013720C20930B9
:10002300C2FD75080112013720B50930B5FD750809
:100033000212013720B40930B4FD750803120137E9
:10004300C2B1D2B3D2B2D2B0D2B4D2B5D2C2D2C478
:1000530020C40930C4FD75080412013720C20930D9
:10006300C2FD75080512013720B50930B5FD7508C5
:100073000612013720B40930B4FD750807120137A1
:10008300C2B2D2B3D2B0D2B1D2B4D2B5D2C2D2C438
:1000930020C40930C4FD75080812013720C2093095
:1000A300C2FD75080912013720B50930B5FD750881
:1000B3000A12013720B40930B4FD75080B12013759
:1000C300C2B3D2B0D2B2D2B1D2B4D2B5D2C2D2C4F8
:1000D30020C40930C4FD75080C12013720C2093051
:1000E300C2FD75080D12013720B50930B5FD75083D
:1000F3000E12013720B40930B4FD75080F12013711
:0101030022D9
:08017D0012016112000380FB76
:0300000002017189
:0C017100787FE4F6D8FD75810802017D5E
:00000001FF
