:10033800C0F9A4B0999282F880908883C6A1868E6D
:02034800BF7F75
:06000300010BFF010900E2
:1002EB0075F00A84E5F090033893FD1202CD7FF48C
:0202FB007E0182
:0B02FD00EF1FAC0670011E4C70F622D3
:10026700EF24FB601314601914601F24037023E547
:10027700A0541F4480F5A022E5A0541F44A0F5A078
:1002870022E5A0541F44C0F5A022E5A0541F44E076
:03029700F5A022AD
:10034A007F05120267E4F5801F1202677580FF229B
:10002600E4FDEDC394087480948050237F0412028B
:1000360067A80574FE088002C333D8FCF5807F608C
:100046007EEA1202FD7F607EEA1202FD0D80D3E495
:10005600FDEDC394087480948050247F04120267D7
:10006600A80574FE088002C333D8FCF4F5807F60CF
:100076007EEA1202FD7F607EEA1202FD0D80D2E466
:10008600FDEDC3940874809480502E7F061202679B
:10009600A8057401088002C333D8FCF5807F0712D7
:1000A6000267E4F5807F607EEA1202FD7F607EEAE9
:0900B6001202FD7580FF0D80C8E7
:0100BF00221E
:10035A00758901758C3C758AAFD2A9D2AFD28C222D
:03000B0002029A54
:10029A00C0E0758C3C758AAF050AE50A64147020C3
:1002AA00F50A0508E508643C7016F508050DE50D24
:1002BA00643C700C050CF50DE50C640C7002F50C31
:0302CA00D0E0324F
:1002CD00AE077F06120267AF06A807740108800209
:0E02DD00C333D8FCF5807F071202678D8022A4
:10014C00E5087F071202EBE50875F00A8493FD7F42
:10015C00061202F6900348E493FD7F051202F6E5C1
:10016C000D7F041202EBE50D75F00A8493FD7F03FD
:10017C001202F6900348E493FD7F021202F6E50C9E
:10018C0075F00A84E5F090033893FD7F011202F6B6
:10019C00E50C75F00A8493FDE4FF1202F67F06125B
:0D01AC0002677580FF0F1202677580FF2249
:10000E00AB07AA06EB1BAE0270011A4E6005120179
:04001E004C80F122FF
:1001B90020B3297F0A7E001202FD20B31F20B30558
:1001C90012014C80F87F04120267E50BF444BFFF6B
:1001D900E50B44405FF50BF58053A01F20B2297F42
:1001E9000A7E001202FD20B21F20B20512014C80C6
:1001F900F87F04120267E50BF4447FFFE50B4480A6
:090209005FF50BF58053A01F22E4
:10030800759850538EBF538EFE53890F758BE875C1
:090318008DFFD28ED2AFD2AC22CF
:0300230002037A5B
:0B037A00309807859909C29880F63280
:08036A0075F00A84E5F04FFF75
:080372008F993099FDC2992218
:10021200E509605054F02450601A241070467F049F
:10022200120267E509F444F0FFE50B440F5FF50B9A
:10023200F580802DE50C75F00A84C454F0FFE50CBE
:1002420012036AE50D75F00A84C454F0FFE50D123D
:10025200036AE50875F00A84C454F0FFE508120346
:050262006AE4F5092229
:1003210012034A12002612035A1203081201B912CB
:07033100014C12021280F5DD
:030000000200C03B
:0C00C000787FE4F6D8FD75810D02010781
:1000CC00020321E493A3F8E493A34003F68001F226
:1000DC0008DFF48029E493A3F85407240CC8C33335
:1000EC00C4540F4420C8834004F456800146F6DF04
:1000FC00E4800B0102040810204080900003E47E91
:10010C00019360BCA3FF543F30E509541FFEE493F8
:10011C00A360010ECF54C025E060A840B8E493A3BF
:10012C00FAE493A3F8E493A3C8C582C8CAC583CAEA
:10013C00F0A3C8C582C8CAC583CADFE9DEE780BEA2
:0100090000F6
:00000001FF
