:10021F00C0F9A4B0999282F88090407924301912D5
:04022F000278001041
:1001D200071680828486888A8C070F8183858789A7
:0B01E2008B8D07080050171302072246
:10017700E4FD7F8E120233E4F51DC3E51D94077479
:1001870080948050157416251DF8E6FF7408251D08
:10019700F8E6FD120233051D80E07D807F8E0202A6
:0101A7003324
:1001A800E4F51DAF1DEF3395E0FEC3EF9407EE6451
:1001B8008094805014740F2FF8E6FF1201387408E9
:0901C800251DF8A607051D80DACB
:0101D100220B
:10000300E50AC4540F90021F93FDE4FF12020A7F16
:10001300C87E0012025EE50A540F90021F93FD7F13
:100023000112020A7FC87E0012025E7DBF7F0212A8
:10003300020A7FC87E0012025EE509C4540F9002D3
:100043001F93FD7F0312020A7FC87E0012025EE542
:1000530009540F90021F93FD7F0412020A7FC87E8A
:100063000012025E7DBF7F0512020A7FC87E001266
:10007300025EE508C4540F90021F93FD7F0612022F
:100083000A7FC87E0012025EE508540F90021F9398
:10009300FD7F0712020A7FC87E0012025E7FFF12F5
:0900A30002477FC87E0002025EE4
:0B0253001201771201A812000380F8CE
:1001EE00E4FEEEC3940874809480500FC297EF1310
:0B01FE0092A3EFC313FFD2970E80E71F
:0102090022D2
:10023300C29300C29700D293001201EEAF051201E0
:04024300EEC2932252
:10013800E4FDC29300C29700D293001201EEE4FFDF
:10014800EFC39408748094805011C297EDC313FDD7
:1001580030A303430580D2970F80E5C29300C29372
:0E016800C29700D29700C2A300D2A300AF0539
:010176002266
:0B025E00EF1FAC0670011E4C70F62272
:10020A00A8077401088002C333D8FC90C000F0909C
:05021A00E000EDF02200
:0C02470090C00074FFF090E000EFF02287
:030000000200AC4F
:0C00AC00787FE4F6D8FD75811D0200F39A
:1000B800020253E493A3F8E493A34003F68001F209
:1000C80008DFF48029E493A3F85407240CC8C33349
:1000D800C4540F4420C8834004F456800146F6DF18
:1000E800E4800B01020408102040809001D2E47ED5
:1000F800019360BCA3FF543F30E509541FFEE4930D
:10010800A360010ECF54C025E060A840B8E493A3D3
:10011800FAE493A3F8E493A3C8C582C8CAC583CAFE
:10012800F0A3C8C582C8CAC583CADFE9DEE780BEB6
:0101ED000011
:00000001FF
