:09092900010E0001180001170085
:03000B0002077871
:10077800C0E0C0F0C083C082C0D075D000C000C047
:1007880001C002C003C004C005C006C007E50E7062
:0D0798000C120D72E50D7036120CFA803156
:1007A500E4FD7F8E120DF3751900C3E519940774E6
:1007B500809480501574412519F8E6FF7432251987
:1007C500F8E6FD120DF3051980E07D807F8E120D90
:0107D500F330
:1007D6000516E51670020515120C66D3E51694E8A3
:1007E600E5159403401E751500751600AF18EF3316
:1007F60095E0FEEF64014E7004F5188007EF4E7029
:1008060003751801E532B52A10E533B52B0BE5342F
:10081600B52C06750B00750C01C3E5099419E5089E
:1008260094005048AF177E00EF70350510E5107044
:1008360002050F64C8450F7043F50FF5100509E56D
:100846000970020508E512640145117006F511F5F7
:10085600128029E51245117023F511751201801CCD
:10086600EF64014E7016F50BF50C8010E50964195E
:1008760045087008F50BF50CF508F509D007D00604
:10088600D005D004D003D002D001D000D0D0D08281
:07089600D083D0F0D0E03266
:100D7200E50C6401450B7016E5126401451170041F
:100D82007DFE800CE5124511700B7DFF80027DFF18
:060D92007F04120BAA22EF
:0B0E2800120B661206948E138F14222A
:100C2B00E51445136034E51464554513602C7522A7
:100C3B0010752310752410752510752610AE13AF83
:100C4B00147C007D0A1207158F27AE13AF147C009E
:0B0C5B007D0A1207158D2875290C2258
:100CCC00E534C4540FF522E534540FF52375241183
:100CDC00E533C4540FF525E533540FF5267527116C
:0E0CEC00E532C4540FF528E532540FF52922E5
:10097800AF18EF3395E0FEEF64014E700FE534C415
:10098800540FF522E534540FF523800AEF4E700614
:10099800752210752310752411E533C4540FF525FD
:1009A800E533540FF526752711E532C4540FF528A1
:0709B800E532540FF529227E
:1009BF00AF18EF3395E0FEEF64014E700FE52CC4D6
:1009CF00540FF522E52C540FF523800AEF4E7006D5
:1009DF00752210752310752411E52BC4540FF525BE
:1009EF00E52B540FF526752711E52AC4540FF5286A
:0709FF00E52A540FF529223F
:100A0600E534C4540FF522E534540FF523AF18EF3F
:100A16003395E0FEEF64014E700FE533C4540FF5D5
:100A260025E533540FF526800AEF4E70067525101E
:100A3600752610752411752711E532C4540FF52853
:070A4600E532540FF52922EF
:100A4D00E52CC4540FF522E52C540FF523AF18EF08
:100A5D003395E0FEEF64014E700FE52BC4540FF596
:100A6D0025E52B540FF526800AEF4E7006752510DF
:100A7D00752610752411752711E52AC4540FF52814
:070A8D00E52A540FF52922B0
:100A9400E534C4540FF522E534540FF523752411BD
:100AA400E533C4540FF525E533540FF526752711A6
:100AB400AF18EF3395E0FEEF64014E700EE532C4DB
:100AC400540FF528E532540FF52922EF4E700675C0
:060AD40028107529102214
:100ADA00E52CC4540FF522E52C540FF52375241187
:100AEA00E52BC4540FF525E52B540FF52675271170
:100AFA00AF18EF3395E0FEEF64014E700EE52AC49D
:100B0A00540FF528E52A540FF52922EF4E70067581
:060B1A00281075291022CD
:10000E0020B0227F147E00120E3320B018E50C644F
:10001E0001450B7003751701050E530E0320B00535
:10002E00120B2080F820B1227F327E00120E332078
:10003E00B118E50C6401450B7003751701050A53E1
:10004E000A0320B105120B2080F830B2030202D051
:10005E007F147E00120E3330B2030202D0E50C6420
:10006E0001450B7003751701E50EFD7C00640170F0
:10007E0046E534C4540F75F00AA4FFE534540F7AE4
:10008E00002FFFEA35F0FEC3EF9417EE64809480E4
:10009E00501DAF347E00EF64097005753410801763
:1000AE00EF64194E7005753420800C05348008E518
:1000BE003464237002F534ED64024C7067E533C48A
:1000CE00540F75F00AA4FFE533540F7C002FFFEC9C
:1000DE0035F0FED3EF943AEE64809480503EAF3309
:1000EE007E00EF640970057533108038EF64194E89
:1000FE007005753320802DEF64294E7005753330F1
:10010E008022EF64394E70057533408017EF6449D5
:10011E004E7005753350800C05338008E5336459F5
:10012E007002F533E50E64037067E532C4540F7543
:10013E00F00AA4FFE532540F7C002FFFEC35F0FEE1
:10014E00D3EF943AEE64809480503EAF327E00EF4F
:10015E00640970057532108038EF64194E7005759C
:10016E003220802DEF64294E70057532308022EFDB
:10017E0064394E70057532408017EF64494E700534
:10018E00753250800C05328008E53264597002F5E4
:10019E0032E50AFD7C0064017046E52CC4540F75EF
:1001AE00F00AA4FFE52C540F7A002FFFEA35F0FE7B
:1001BE00C3EF9417EE64809480501DAF2C7E00EF39
:1001CE0064097005752C108017EF64194E70057553
:1001DE002C20800C052C8008E52C64237002F52C55
:1001EE00ED64024C7067E52BC4540F75F00AA4FF42
:1001FE00E52B540F7C002FFFEC35F0FED3EF943A35
:10020E00EE64809480503EAF2B7E00EF6409700543
:10021E00752B108038EF64194E7005752B20802DCC
:10022E00EF64294E7005752B308022EF64394E70C5
:10023E0005752B408017EF64494E7005752B508065
:10024E000C052B8008E52B64597002F52BE50A642A
:10025E00037067E52AC4540F75F00AA4FFE52A540B
:10026E000F7C002FFFEC35F0FED3EF943AEE648056
:10027E009480503EAF2A7E00EF64097005752A10F7
:10028E008038EF64194E7005752A20802DEF642991
:10029E004E7005752A308022EF64394E7005752A2E
:1002AE00408017EF64494E7005752A50800C052A60
:1002BE008008E52A64597002F52A20B205120B2037
:1002CE0080F830B30302054F7F327E00120E3330BA
:1002DE00B30302054FE50C6401450B70037517015E
:1002EE00E50EFD7C0064017045E534C4540F75F0D5
:1002FE000AA4FFE534540F7A002FFFEA35F0FEC34F
:10030E00EF9401EE64809480401DAF347E00EF6464
:10031E001070057534098016EF64204E7005753423
:10032E0019800B15348007E5347003753423ED64A2
:10033E00024C7066E533C4540F75F00AA4FFE53322
:10034E00540F7C002FFFEC35F0FEC3EF9401EE64EA
:10035E00809480403EAF337E00EF6410700575339D
:10036E00098037EF64204E7005753319802CEF64C9
:10037E00304E70057533298021EF64404E7005753F
:10038E0033398016EF64504E7005753349800B1566
:10039E00338007E5337003753359E50E64037066D9
:1003AE00E532C4540F75F00AA4FFE532540F7C00F9
:1003BE002FFFEC35F0FEC3EF9401EE648094804085
:1003CE003EAF327E00EF641070057532098037EF54
:1003DE0064204E7005753219802CEF64304E700516
:1003EE007532298021EF64404E70057532398016C2
:1003FE00EF64504E7005753249800B15328007E55B
:10040E00327003753259E50AFD7C0064017045E5D2
:10041E002CC4540F75F00AA4FFE52C540F7A002F4C
:10042E00FFEA35F0FEC3EF9401EE64809480401D28
:10043E00AF2C7E00EF64107005752C098016EF64EA
:10044E00204E7005752C19800B152C8007E52C702D
:10045E0003752C23ED64024C7066E52BC4540F75A6
:10046E00F00AA4FFE52B540F7C002FFFEC35F0FEB5
:10047E00C3EF9401EE64809480403EAF2B7E00EF7C
:10048E0064107005752B098037EF64204E7005756A
:10049E002B19802CEF64304E7005752B298021EFBF
:1004AE0064404E7005752B398016EF64504E700502
:1004BE00752B49800B152B8007E52B7003752B5977
:1004CE00E50A64037066E52AC4540F75F00AA4FFAA
:1004DE00E52A540F7C002FFFEC35F0FEC3EF94019C
:1004EE00EE64809480403EAF2A7E00EF641070056B
:1004FE00752A098037EF64204E7005752A19802CF5
:10050E00EF64304E7005752A298021EF64404E70DD
:10051E0005752A398016EF64504E7005752A49808C
:10052E000B152A8007E52A7003752A59E50E70030C
:10053E00750D0120B308120E28120B2080F5E4F57C
:02054E000D227C
:100B2000E50AFB7A007024E50E14601614601614B2
:100B300060162403702FE50D64017003020C2B0274
:100B40000CCC020978020A06020A94EB4A6016E508
:100B50000A24FE600A14600A240270090209BF0216
:060B60000A4D120ADA2220
:100DBB00E4FD7F05120BAA7DFF7F04120BAA120C18
:0C0DCB009B120E0712000E120B2080F885
:100DD700E4FEEEC3940874809480500FC297EF131B
:0B0DE70092A3EFC313FFD2970E80E72A
:010DF20022DE
:100DF300C29300C29700D29300120DD7AF05120D14
:040E0300D7C293229D
:100BEC00E4FDC29300C29700D29300120DD7E4FF2C
:100BFC00EFC39408748094805011C297EDC313FD19
:100C0C0030A303430580D2970F80E5C29300C293B3
:0E0C1C00C29700D29700C2A300D2A300AF057A
:010C2A0022A7
:040E19007F327E00A6
:0B0E1D00EF1FAC0670011E4C70F622A7
:020D2400AD0719
:100D2600E4FBEBC39408748094805012C294ED13D4
:100D36009294120E19D294EDC313FD0B80E47F3208
:050D46007E00020E1DFD
:100D9800E4FBEBC39408748094805014C294EDC3B0
:100DA80013FDD294309403430580120E190B80E290
:020DB800AF0585
:010DBA002216
:100D4B00C200D2947F787E00120E1DC2947F207E4B
:100D5B0003120E1DD2947F647E00120E1DA294927C
:060D6B0000120E19A200A7
:010D7100225F
:100932000822000000000000000012493F065B4F41
:10094200666D7D077F6F777C395E79710040084163
:1009520080828486888A8C8E083981838587898BF8
:100962008D8F073250592305040222082A00000005
:05097200000000000080
:100BAA008D80EF603624FB601414601B14602224CD
:100BBA0003702BE5A0541F4480F5A08021E5A054C2
:100BCA001F44A0F5A08017E5A0541F44C0F5A080DB
:100BDA000DE5A0541F44E0F5A0800353A01F53A0C5
:020BEA001F22C8
:100C6600E4FD7F06120BAAAF21A8077401088002D3
:100C7600C333D8FCFD7F06120BAA74222521F8E6A1
:100C86002449F8E6F4FD0F120BAA0521E5216408B4
:040C96007002F521D2
:010C9A002237
:100E07005389F0758A18758CFCC28DD28CD2A9D201
:020E1700AF2208
:0B0E3300EF1FAC0670011E4C70F62291
:100B6600120D4B7FCC120D247F44120D24120D4B17
:100B76007FCC120D247FBE120D24120D988F1B12EE
:100B86000D98EFAD1BFCEC12065B8F1F8E1E8D1DA4
:100B96008C1CE4FFFE7D807C3DAB1FAA1EA91DA810
:040BA6001C020550D8
:100C9B00E4FD7F8E120DF3E4F51BC3E51B94077483
:100CAB0080948050157441251BF8E6FF7432251B88
:100CBB00F8E6FD120DF3051B80E07D807F8E020DA3
:010CCB00F335
:100CFA00E4F51AAF1AEF3395E0FEC3EF9407EE64FA
:100D0A00809480501474392FF8E6FF120BEC743279
:090D1A00251AF8A607051A80DA73
:010D230022AD
:10055000EC4D6011E8497017ED33EC3304600DE4A5
:10056000FCFFFEFD22E933E8330470F802070012B5
:1005700006CB58046009E4CC2481500628500902B7
:10058000070A284003020707C0E0EB4A7044B9801D
:1005900006D0E0FB0206F6EF4E701CBD8008EBFFB4
:1005A000EAFEE9FD80EBE98DF0A4FEE5F0020639F4
:1005B000E9CDF9EAFEEBFFEF89F0A4FCE5F0CE8986
:1005C000F0A42EFFE435F0CD89F0A42DFEE435F043
:1005D0008067EF4E7005BD80D780C3EF8BF0A4AC71
:1005E000F0EE8BF0A42CFCE435F0F8EF8AF0A42CAC
:1005F000E5F038FCE433CB8DF0A42CFCE5F03BF8BF
:10060000EE8AF0A42CFCE5F038F8E433CF89F0A4AE
:100610002CFCE5F038CF3400CE89F0A42FFFE5F0B4
:100620003EFEE433C98DF0A42EFEE5F039CD8AF00C
:10063000A42FFFE5F03EFEE43DFD33D0E0FB500784
:100640000BBB000F02070AEC2CFCEF33FFEE33FE6E
:06065000ED33FD0206E29D
:1006560075F020800E75F010800575F0087D007E1F
:10066600007F003392D530D50312076AEC33401071
:10067600EF33FFEE33FEED33FDEC33FCD5F0ED2228
:0E068600E5F0247EA2D513CC92E7CDCEFF2264
:10069400EDD2E7CD33EC3392D524814006E4FFFE5E
:1006A400FDFC22FCE4CFCECDCC24E0501174FF80BD
:1006B400EDC3CC13CCCD13CDCE13CECF13CF04705A
:0706C400F030D5DE02076AE9
:1006CB00E9D2E7C933E833F892D5EDD2E7CD33EC75
:0706DB0033FC5002B2D522EE
:1006E200EC30E7100FBF000C0EBE00080DBD000479
:1006F2000BEB6014A2D5EB13FCED92E7FD2274FF25
:10070200FCFDFEFF22E480F8A2D574FF13FC7D807D
:03071200E480EF91
:0300000002089D56
:0C089D00787FE4F6D8FD75815A0208E46B
:10071500BC000BBE0029EF8DF084FFADF022E4CCC8
:10072500F875F008EF2FFFEE33FEEC33FCEE9DEC91
:10073500984005FCEE9DFE0FD5F0E9E4CEFD22EDD7
:10074500F8F5F0EE8420D21CFEADF075F008EF2F21
:10075500FFED33FD4007985006D5F0F222C398FD12
:050765000FD5F0EA22AF
:0E076A00C3E49FFFE49EFEE49DFDE49CFC22A0
:1008A900020DBBE493A3F8E493A34003F68001F29D
:1008B90008DFF48029E493A3F85407240CC8C33350
:1008C900C4540F4420C8834004F456800146F6DF1F
:1008D900E4800B0102040810204080900929E47E7D
:1008E900019360BCA3FF543F30E509541FFEE49314
:1008F900A360010ECF54C025E060A840B8E493A3DB
:10090900FAE493A3F8E493A3C8C582C8CAC583CA05
:10091900F0A3C8C582C8CAC583CADFE9DEE780BEBD
:01097700007F
:00000001FF
